EXCL19061200000020110199366001701GPIPDR04723436633M00MPPOX0001CL04  99199  04042019040420190000000000000000202000000002DRUG      000000000000000000009999      
EXCL19061200000040110199366001801GPIPDR06723436635M00MPPOX0001CL06  99199  0414201904142019-000000000000000200000000004DRUG      000000000000000000009999      
EXCL19061200000060110199366001901GPIPDR25705093604M00MPPOX0001CL25  99199  04122019041220190000000000000001100000000006DRUG      000000000000000000009999      
EXCL19061200000080110199366002001GPIPDR25705093604M00MPPOX0001CL25  99199  0420201904202019-000000000000000700000000008DRUG      000000000000000000009999      
EXCL19061200000100110199366002101GPIPDR14705093593M00MPPOX0001CL14  99199  04052019040520190000000000000000200200000010DRUG      000000000000000000009999      
EXCL19061200000120110199366002201GPIPDR16705093595M00MPPOX0001CL16  99199  0407201904072019-000000000000000200000000012DRUG      000000000000000000009999      
EXCL19061200000140110199366002301GPIPDR28705093607M00MPPOX0001CL28  99199  04182019041820190000000000000000301200000014DRUG      000000000000000000009999      
EXCL19061200000160110199366002401GPIPDR30705093609M00MPPOX0001CL30  99199  0401201904012019-000000000000000200000000016DRUG      000000000000000000009999      
EXCL19061200000180110199366002701GPIPDR36705093615M00RPPOX0001CL36  99199  04022019040220190000000000000001011000000018DRUG      000000000000000000009999      
EXCL19061200000200110199366002801GPIPDR37705093616M00RPPOX0001CL37  99199  0403201904032019-000000000000001070000000020DRUG      000000000000000000009999      
EXCL19061200000220111216502895601GPIPDR25705093604M00MPPOX0001CL25  99199  04122019041220190000000000000001100000000022DRUG      000000000000000000009999      
EXCL19061200000240111860801469301GPIPDR06723436635M00MPPOX0001CL06  99199  0414201904142019-000000000000000200000000024DRUG      000000000000000000009999      
EXCL19061200000260112133803897301GPIPDR27705093606M00MPPOX0001CL27  99199  0402201904022019-000000000000004600000000026DRUG      000000000000000000009999      
EXCL19061200000270112492895179801GPIPDR02723436631M00MPPOX0001CL02  99199  0402201904022019-000000000000004500000000027DRUG      000000000000000000009999      
EXCL19061200000280112516111916601GPIPDR31705093610M00MPPOX0001CL31  99199  0405201904052019-000000000000000780000000028DRUG      000000000000000000009999      
EXCL19061200000290113059333611901GPIPDR10723436639M00MPPOX0001CL10  99199  0405201904052019-000000000000000400000000029DRUG      000000000000000000009999      
EXCL19061200000300113225264424601GPIPDR11705093590M00MPPOX0001CL11  99199  04102019041020190000000000000004300000000030DRUG      000000000000000000009999      
EXCL19061200000310113524707136401GPIPDR35723433501M00RPPOX0002CL35  99199  0404201904042019-000000000000004800000000031DRUG      000000000000000000009999      
EXCL19061200000320113628397148701GPIPDR38705093617M00RPPOX0001CL38  99199  0410201904102019-000000000000000650000000032DRUG      000000000000000000009999      
EXCL19061200000330115065701247701GPIPDR37705093616M00RPPOX0001CL37  99199  0403201904032019-000000000000001070000000033DRUG      000000000000000000009999      
EXCL19061200000350115252659580801GPIPDR12705093591M00MPPOX0001CL12  99199  0402201904022019-000000000000004900000000035DRUG      000000000000000000009999      
EXCL19061200000360115485028418001GPIPDR28705093607M00MPPOX0001CL28  99199  04182019041820190000000000000000301200000036DRUG      000000000000000000009999      
EXCL19061200000380116180516495401GPIPDR32705093611M00MPPOX0001CL32  99199  0410201904102019-000000000000000750000000038DRUG      000000000000000000009999      
EXCL19061200000390116391226942201GPIPDR25705093604M00MPPOX0001CL25  99199  0420201904202019-000000000000000700000000039DRUG      000000000000000000009999      
EXCL19061200000410116883187252601GPIPDR24705093603M00MPPOX0001CL24  99199  04212019042120190000000000000000550000000041DRUG      000000000000000000009999      
EXCL19061200000420116909358405601GPIPDR35705093614M00RPPOX0001CL35  99199  04142019041420190000000000000000700000000042DRUG      000000000000000000009999      
EXCL19061200000430117025557229501GPIPDR29705093608M00MPPOX0001CL29  99199  04102019041020190000000000000000500000000043DRUG      000000000000000000009999      
EXCL19061200000440117141115683501GPIPDR14705093593M00MPPOX0001CL14  99199  04052019040520190000000000000000200200000044DRUG      000000000000000000009999      
EXCL19061200000460117251834631001GPIPDR26705093605M00MPPOX0001CL26  99199  04072019040720190000000000000005400000000046DRUG      000000000000000000009999      
EXCL19061200000470117420188306801GPIPDR09723436638M00MPPOX0001CL09  99199  04142019041420190000000000000000300000000047DRUG      000000000000000000009999      
EXCL19061200000480117618848046401GPIPDR16705093595M00MPPOX0001CL16  99199  0407201904072019-000000000000000200000000048DRUG      000000000000000000009999      
EXCL19061200000500117987699509901GPIPDR36705093615M00RPPOX0001CL36  99199  04022019040220190000000000000001011000000050DRUG      000000000000000000009999      
EXCL19061200000520118042104061601GPIPDR15705093594M00MPPOX0001CL15  99199  0410201904102019-000000000000000500000000052DRUG      000000000000000000009999      
EXCL19061200000530119248872384801GPIPDR08723436637M00MPPOX0001CL08  99199  04122019041220190000000000000000900000000053DRUG      000000000000000000009999      
EXCL19061200000540119396777097201GPIPDR22705093601M00MPPOX0001CL22  99199  0402201904022019-000000000000004500000000054DRUG      000000000000000000009999      
EXCL19061200000550119600386985901GPIPDR30705093609M00MPPOX0001CL30  99199  0401201904012019-000000000000000200000000055DRUG      000000000000000000009999      
EXCL19061200000570119722151441101GPIPDR04723436633M00MPPOX0001CL04  99199  04042019040420190000000000000000202000000057DRUG      000000000000000000009999      
