EXCL19061700000010110199366001801GPIPDR06723436635M00MPPOX0001CL06  99199  04142019041420190000000000000000160000000001DRUG      000000000000000000009999      
EXCL19061700000030119248872384801GPIPDR08723436637M00MPPOX0001CL08  99199  0412201904122019-000000000000000100000000003DRUG      000000000000000000009999      
EXCL19061700000050121001023305601W0051457908470423M00MPPOX00011000  99199  06172019061720190000000000000008860000000005DRUG      000000000000000000009999      
EXCL19061700000060122989726438501W0002709906470213M00MPPOX0002100A  99199  06172019061720190000000000000004590000000006DRUG      000000000000000000009999      
EXCL19061700000070126539303491701W0051645906623120M00MPPOX00031001  99199  06172019061720190000000000000007530000000007DRUG      000000000000000000009999      
EXCL190617000000801R5917351595501GRPMED05909816351M00MPPOX0002CL05  99199  0521201905212019-000000000000000150000000008DRUG      000000000000000000009999      
EXCL190617000000901R8007549998901GRPMED11909816361M00MPPOX0001CL11  99199  05212019052120190000000000000000110000000009DRUG      000000000000000000009999      
