EXCL19061200000010121201472617301W0002709906470213M00MPPOX0002100A  99199  06122019061220190000000000000007000000000001DRUG      000000000000000000009999      
EXCL19061200000020122660911130901W0051465909813690M00MPPOX00011000  99199  06122019061220190000000000000006730000000002DRUG      000000000000000000009999      
EXCL19061200000030128775078181701W0051645906623120M00MPPOX00031001  99199  06122019061220190000000000000004010000000003DRUG      000000000000000000009999      
EXCL190612000000401R4532093200601GPIPDR27705093606M00MPPOX0001CL27  99199  0531201905312019-000000000000000210000000004DRUG      000000000000000000009999      
EXCL190612000000601R4532093201101GPIPDR22705093601S01MPPOX0001CL22  99199  0531201905312019-000000000000000260000000006DRUG      000000000000000000009999      
EXCL190612000000701R4532093201601GPIPDR12705093591M00MPPOX0001CL12  99199  05312019053120190000000000000000130000000007DRUG      000000000000000000009999      
EXCL190612000000801R4532093202101GPIPDR35723433501M00RPPOX0002CL58  99199  0531201905312019-000000000000005000000000008DRUG      000000000000000000009999      
EXCL190612000000901R4532093202601GPIPDR39705093618M00RPPOX0001CL39  99199  05312019053120190000000000000000250000000009DRUG      000000000000000000009999      
